:100000000C9431000C944E000C944E000C944E0055
:100010000C94CB050C947C050C9466040C94DC03C6
:100020000C9421040C948B030C94FD020C94AE02EE
:100030000C944E000C944E000C944E000C944E0008
:100040000C944E000C944E000C944E000C944E00F8
:100050000C944E00070511051B0525052F053905D4
:10006000430511241FBECFE5D8E0DEBFCDBF12E0AF
:10007000A0E6B0E0E6E9F1E202C005900D92AC30F6
:10008000B107D9F722E0ACE0B2E001C01D92A5347F
:10009000B207E1F70E948D080C94C9100C9400007F
:1000A000813019F130F08230E1F1833009F455C02C
:1000B0000895442319F0413069F008952AB381E08E
:1000C00090E002C0880F991F6A95E2F7809582231D
:1000D0008ABB08952AB381E090E002C0880F991F7F
:1000E0006A95E2F7822B8ABB0895442319F04130C8
:1000F00069F0089527B381E090E002C0880F991F4E
:100100006A95E2F78095822387BB089527B381E043
:1001100090E002C0880F991F6A95E2F7822B87BB97
:100120000895442319F0413069F0089524B381E023
:1001300090E002C0880F991F6A95E2F780958223AC
:1001400084BB089524B381E090E002C0880F991F1A
:100150006A95E2F7822B84BB0895442319F041305D
:1001600069F0089521B381E090E002C0880F991FE3
:100170006A95E2F78095822381BB089521B381E0DF
:1001800090E002C0880F991F6A95E2F7822B81BB2D
:100190000895813019F130F08230E1F1833009F4B3
:1001A00055C00895442319F0413069F008952BB3E8
:1001B00081E090E002C0880F991F6A95E2F7809570
:1001C00082238BBB08952BB381E090E002C0880F9F
:1001D000991F6A95E2F7822B8BBB0895442319F08F
:1001E000413069F0089528B381E090E002C0880FA3
:1001F000991F6A95E2F78095822388BB089528B3FA
:1002000081E090E002C0880F991F6A95E2F7822B87
:1002100088BB0895442319F0413069F0089525B34F
:1002200081E090E002C0880F991F6A95E2F78095FF
:10023000822385BB089525B381E090E002C0880F3A
:10024000991F6A95E2F7822B85BB0895442319F024
:10025000413069F0089522B381E090E002C0880F38
:10026000991F6A95E2F78095822382BB089522B395
:1002700081E090E002C0880F991F6A95E2F7822B17
:1002800082BB0895813081F028F08230B9F083304C
:10029000F9F027C089B390E002C0959587956A95DB
:1002A000E2F7982F91701DC086B390E002C095953B
:1002B00087956A95E2F7982F917013C083B390E009
:1002C00002C0959587956A95E2F7982F917009C0BD
:1002D00083B390E002C0959587956A95E2F7982FD1
:1002E0009170892F0895CF93C82F482F417064E0F3
:1002F00081E00E94C900C1FB442740F965E081E02C
:100300000E94C900C2FB442740F966E081E00E94D8
:10031000C900C3FB442740F967E081E00E94C9009F
:10032000CF91089541E062E082E00E94C9008FE928
:100330009FE00197F1F700C0000040E062E082E03A
:100340000E94C9000895813021F050F0823079F088
:1003500014C087B18F7787B987B18F7B87B90DC0FC
:1003600087B18F7787B987B1806487B906C087B1B5
:10037000806887B987B1806487B986B1816086B9A2
:1003800086B1826086B986B1846086B986B1877F7E
:1003900086B986B18F7D86B986B1806886B90895A1
:1003A000883070F497B1907E97B997B1892B87B94F
:1003B00086B1806486B93699FECF84B195B108952F
:1003C00080E090E008958FB780688FBF08958FB761
:1003D0008F778FBF0895813031F0A8F08230F9F027
:1003E0008330A9F1089583B78F7B83BF83B7877F5D
:1003F00083BF613019F481E782BF01C012BE89B7A3
:10040000816089BF089583B78F7B83BF83B788607E
:1004100083BF89EF8CBF89B7826089BF089583B796
:10042000806483BF83B7886083BF442319F0413061
:1004300041F00DC083B7806183BF83B7806283BF03
:1004400006C083B78F7E83BF83B7806283BF83B7C5
:10045000806483BF83B7877F83BF442319F0413013
:1004600041F0089583B7806183BF83B7806283BF03
:10047000089583B78F7E83BF83B7806283BF08955B
:100480008230F9F028F4882341F0813081F008951A
:10049000833009F1843049F1089583B7816083BFC7
:1004A00083B78D7F83BF83B78B7F83BF089583B767
:1004B0008E7F83BF83B7826083BF83B78B7F83BF09
:1004C000089583B7816083BF83B7826083BF83B79A
:1004D0008B7F83BF089583B78E7F83BF83B78D7F64
:1004E00083BF83B7846083BF089583B7816083BF70
:1004F00083B78D7F83BF83B7846083BF08958536BC
:1005000008F084E6662371F06130E9F4982F80E00A
:1005100064E670E00E947E1061506CBF842F0E94E0
:100520004002089564E670E09B01281B31095FEFEB
:10053000529FC001539F900D11240E947E106CBFEA
:10054000842F0E944002089583B78E7F83BF83B7B4
:100550008D7F83BF83B78B7F83BF08951F920F92D8
:100560000FB60F9211242F933F934F935F936F9386
:100570007F938F939F93AF93BF93EF93FF9380915C
:100580001E0290911F02A0912002B09121020196BB
:10059000A11DB11D80931E0290931F02A093200203
:1005A000B093210240913F025091400260E070E020
:1005B00084179507A607B70778F010921E021092CD
:1005C0001F021092200210922102E0914302F0914A
:1005D0004402309709F00995FF91EF91BF91AF91D7
:1005E0009F918F917F916F915F914F913F912F914B
:1005F0000F900FBE0F901F9018951F920F920FB67D
:100600000F9211242F933F934F935F936F937F9398
:100610008F939F93AF93BF93EF93FF9380911C02AF
:1006200090911D02019690931D0280931C022091CF
:100630003F02309140028217930758F010921D023A
:1006400010921C02E0914102F0914202309709F0B1
:100650000995FF91EF91BF91AF919F918F917F91FC
:100660006F915F914F913F912F910F900FBE0F901F
:100670001F9018958230F9F028F4882341F08130DA
:1006800081F00895833009F1843049F108958EB5E1
:1006900081608EBD8EB58D7F8EBD8EB58B7F8EBDFC
:1006A00008958EB58E7F8EBD8EB582608EBD8EB55F
:1006B0008B7F8EBD08958EB581608EBD8EB58260B4
:1006C0008EBD8EB58B7F8EBD08958EB58E7F8EBD0F
:1006D0008EB58D7F8EBD8EB584608EBD08958EB52E
:1006E00081608EBD8EB58D7F8EBD8EB584608EBDD2
:1006F00008958EB58E7F8EBD8EB58D7F8EBD8EB5E5
:100700008B7F8EBD08951FBC90E49EBD0E943A036E
:1007100080E289BF08951F920F920FB60F921124A5
:100720002F933F934F935F936F937F938F939F93F9
:10073000AF93BF93EF93FF938091180290911902AA
:10074000A0911A02B0911B020196A11DB11D8093C8
:10075000180290931902A0931A02B0931B024091C1
:100760003502509136026091370270913802841739
:100770009507A607B70778F0109218021092190291
:1007800010921A0210921B02E0913D02F0913E027B
:10079000309709F00995FF91EF91BF91AF919F912B
:1007A0008F917F916F915F914F913F912F910F901A
:1007B0000FBE0F901F9018951F920F920FB60F92B9
:1007C00011242F933F934F935F936F937F938F9356
:1007D0009F93AF93BF93EF93FF93809116029091F5
:1007E000170201969093170280931602A0E0B0E0E2
:1007F0004091310250913202609133027091340283
:1008000084179507A607B70758F0109217021092A1
:100810001602E0913B02F0913C02309709F00995F5
:10082000FF91EF91BF91AF919F918F917F916F91C8
:100830005F914F913F912F910F900FBE0F901F909E
:1008400018951F920F920FB60F9211242F933F937A
:100850004F935F936F937F938F939F93AF93BF93C8
:10086000EF93FF938091140290911502019690935B
:10087000150280931402A0E0B0E040912D02509147
:100880002E0260912F027091300284179507A607FF
:10089000B70758F01092150210921402E091390235
:1008A000F0913A02309709F00995FF91EF91BF91CD
:1008B000AF919F918F917F916F915F914F913F91F8
:1008C0002F910F900FBE0F901F9018951F920F92AF
:1008D0000FB60F9211242F933F934F935F938F93F3
:1008E0009F9386B597B520912802211112C02091BF
:1008F000120230911302AC01421B530B50932A0297
:10090000409329022EB52F7B2EBD21E02093280293
:1009100010C02091120230911302AC01421B530B04
:1009200050932C0240932B022EB520642EBD1092C2
:10093000280290931302809312029F918F915F91EE
:100940004F913F912F910F900FBE0F901F901895D0
:10095000813031F0A8F08230F9F08330A9F10895A8
:1009600085B58F7B85BD85B5877F85BD613019F4E1
:1009700081E784BD01C014BC89B7806489BF089534
:1009800085B58F7B85BD85B5886085BD89EF83BDC5
:1009900089B7806889BF089585B5806485BD85B5B0
:1009A000886085BD442319F0413041F00DC085B504
:1009B000806185BD85B5806285BD06C085B58F7EA9
:1009C00085BD85B5806285BD85B5806485BD85B5ED
:1009D000877F85BD442319F0413041F0089585B5E6
:1009E000806185BD85B5806285BD089585B58F7EA2
:1009F00085BD85B5806285BD089590E087309105FD
:100A000008F04AC0FC01E65DFF4F0C94B41085B5B8
:100A1000816085BD85B58D7F85BD85B58B7F85BDA5
:100A2000089585B58E7F85BD85B5826085BD85B508
:100A30008B7F85BD089585B5816085BD85B5826054
:100A400085BD85B58B7F85BD089585B58E7F85BDB8
:100A500085B58D7F85BD85B5846085BD089585B5D7
:100A6000816085BD85B58D7F85BD85B5846085BD7B
:100A7000089585B58E7F85BD85B5826085BD85B5B8
:100A8000846085BD089585B5816085BD85B582602A
:100A900085BD85B5846085BD0895853608F084E6FA
:100AA000662371F06130E9F4982F80E064E670E02D
:100AB0000E947E10615063BD842F0E94FD04089542
:100AC00064E670E09B01281B31095FEF529FC00173
:100AD000539F900D11240E947E1063BD842F0E94AD
:100AE000FD04089585B58E7F85BD85B58D7F85BD57
:100AF00085B58B7F85BD08951F920F920FB60F921B
:100B000011242F933F934F935F936F937F938F9312
:100B10009F93AF93BF93EF93FF9380910E029091B9
:100B20000F02A0911002B09111020196A11DB11DFA
:100B300080930E0290930F02A0931002B0931102C3
:100B4000409122025091230260E070E084179507E3
:100B5000A607B70778F010920E0210920F021092BB
:100B6000100210921102E0912602F09127023097B4
:100B700009F00995FF91EF91BF91AF919F918F91EE
:100B80007F916F915F914F913F912F910F900FBE89
:100B90000F901F9018951F920F920FB60F9211246D
:100BA0002F933F934F935F936F937F938F939F9375
:100BB000AF93BF93EF93FF9380910C0290910D023E
:100BC000019690930D0280930C02209122023091A5
:100BD00023028217930758F010920D0210920C0214
:100BE000E0912402F0912502309709F00995FF91D8
:100BF000EF91BF91AF919F918F917F916F915F9195
:100C00004F913F912F910F900FBE0F901F9018950D
:100C1000CF93C82F41E060E082E00E94C90040E02D
:100C200061E082E00E94C9008C2F82958F700E9443
:100C300073010E9492018C2F0E9473010E94920105
:100C4000CF910895CF93C82F40E060E082E00E94EA
:100C5000C90040E061E082E00E94C9008C2F8295CB
:100C60008F700E9473010E9492018C2F0E94730169
:100C70000E949201CF91089541E060E082E00E94DD
:100C8000500041E061E082E00E94500041E062E0FB
:100C900082E00E94500041E064E081E00E94500048
:100CA00041E065E081E00E94500041E066E081E0C3
:100CB0000E94500041E067E081E00E9450002FE771
:100CC00085EB91E0215080409040E1F700C00000AA
:100CD00040E060E082E00E94C90040E061E082E024
:100CE0000E94C90082E00E9473010E94920188E282
:100CF0000E94220620EF2A95F1F78FE00E9422063B
:100D000080EF8A95F1F781E00E9422068FE39FE150
:100D10000197F1F700C0000086E00E9422060895C6
:100D20000F931F93CF93009729F40CC00E940806DD
:100D3000CF5F02C08C01C0E0F801EC0FF11D808193
:100D40008111F4CFCF911F910F9108954F925F922F
:100D50006F927F928F929F92AF92BF92CF92DF92CB
:100D6000EF92FF920F931F93CF93DF93CDB7DEB730
:100D700060970FB6F894DEBF0FBECDBF4B015C018C
:100D8000042F20E030E0A9010E94A00E88234CF43B
:100D9000B7FAB094B7F8B094412C512C3201439477
:100DA00003C0412C512C3201C501B4010E94170F20
:100DB0006B017C010E94460F9B01AC01C501B4018F
:100DC0000E94330E4B015C01C114D104E104F10413
:100DD000D1F480E3898311E01CC0C701B6012AE089
:100DE00030E040E050E00E949210E1E0F0E0EC0FD3
:100DF000FD1FE10FF11D605D6083C22ED32EE42E36
:100E0000F52E1F5F01C010E0C114D104E104F1040C
:100E100021F745284628472849F0E1E0F0E0EC0FAB
:100E2000FD1FE10FF11D8DE280831F5F9FEF910F8A
:100E300080E012C0A1E0B0E0AC0FBD1FA80FB11D53
:100E40002C91E1E0F0E0EC0FFD1FE90FF11D308186
:100E50003C9320838F5F9150891760F30023B1F199
:100E6000E1E0F0E0EC0FFD1FE10FF11D8EE2808369
:100E70001F5F27C020E030E040E251E4C501B4012B
:100E80000E94FD0F4B015C010E94170FEE24E394BA
:100E9000E10EE1E0F0E0EC0FFD1FE10FF11D80E35A
:100EA000860F808370E080E090E00E94480F9B01F5
:100EB000AC01C501B4010E94330E4B015C010F2D42
:100EC0001E2DFF24FA94F00E0111D4CFE1E0F0E0E2
:100ED000EC0FFD1FE10FF11D1082CE0101960E9463
:100EE000900660960FB6F894DEBF0FBECDBFDF91BF
:100EF000CF911F910F91FF90EF90DF90CF90BF9017
:100F0000AF909F908F907F906F905F904F900895DB
:100F100081E00E9422068FE39FE10197F1F700C074
:100F200000000895882319F0813029F4605C862F31
:100F300080680E9422060895EF92FF920F931F93FC
:100F4000CF93DF938B01E42ED22F8770F82E90E0A1
:100F5000880F991F880F991F880F991F80640E941E
:100F60002206C0E007C0F801EC0FF11D80810E944D
:100F70000806CF5FC830B8F3EE2021F081E0E81614
:100F800021F006C080E88D0F05C080EC8D0F02C0F7
:100F900080E88D0F0E9422068F2D0E940806DF91A7
:100FA000CF911F910F91FF90EF9008950F931F9392
:100FB000CF93DF93D82FC0E000E010E00CC08D2F5E
:100FC0000E94D001080F191F8FEB9DE50197F1F7E3
:100FD00000C00000CF5FCA3090F39801ADECBCECCC
:100FE0000E94BA10969587959695879596958795C0
:100FF000BC01660F771F660F771F680F791F80E0AF
:1010000090E00E94460F20E030E040E85AE30E9462
:10101000FD0F20E030E048EC52E40E94FD0FDF912C
:10102000CF911F910F91089540E00E9450000895C4
:10103000CF93442319F0413091F16CC0813089F095
:1010400028F08230C9F0833009F164C080E00E944A
:101050004201882309F44FC0813009F05BC0C1E030
:1010600059C081E00E944201882309F446C08130C2
:1010700009F050C0C1E04EC082E00E9442018823C6
:10108000F1F1813009F046C0C1E044C083E00E9424
:1010900042018823B1F18130E9F5C1E03BC08130E4
:1010A00079F028F08230A9F08330E1F033C080E09D
:1010B0000E944201882339F1813061F5C0E02AC0E5
:1010C00081E00E944201882301F1813019F5C0E0DE
:1010D00021C082E00E9442018823C9F08130D1F40E
:1010E000C0E018C083E00E944201882391F0813063
:1010F00089F4C0E00FC0C0E00DC0C0E00BC0C0E08C
:1011000009C0C0E007C0C1E005C0C1E003C0C1E044
:1011100001C0C1E08C2FCF910895CF93DF9300D011
:10112000CDB7DEB70E94CC080E94E3010E943C06C6
:1011300080E00E94A30141E060E082E00E94EB01B8
:101140000E94160919821A8281E00E94D0018C0146
:101150000E943D09AE014E5F5F4FBE016F5F7F4F42
:10116000C8010E94A1096A8189810E94E30920E0E7
:10117000498160E670E080E00E949C076A81898175
:101180000E94F30D2FEF83EC99E0215080409040B6
:10119000E1F700C00000D8CF40E060E080E00E94AE
:1011A000500040E060E080E00E94500040E063E0DA
:1011B00080E00E94500041E062E080E00E94500028
:1011C00041E063E081E00E94500066E082E00E941E
:1011D000140867E082E00E94140841E063E082E0C6
:1011E0000E94500041E064E082E00E94500041E033
:1011F00061E081E00E94500041E060E081E00E94F7
:10120000500041E062E083E00E94500040E064E072
:1012100080E00E94500041E062E081E00E945000C6
:1012200041E067E083E00E945000089580E790E08D
:101230000E94900660E081E00E94920787E790E0BC
:101240000E9490062FEF89E698E12150804090405F
:10125000E1F700C0000084E890E00E9490062FEFC4
:1012600089E698E1215080409040E1F700C00000FD
:1012700084E890E00E949006089584E00E94D607DA
:1012800020E030E04CE052E40E94F80F18160CF019
:1012900057C00E94880786E890E00E9490062FEFD2
:1012A00084E39CE0215080409040E1F700C00000C2
:1012B00081E20E9408062FEF84E39CE021508040E9
:1012C0009040E1F700C0000081E20E9408062FEF85
:1012D00084E39CE0215080409040E1F700C0000092
:1012E0000E9488078EE890E00E94900660E081E00E
:1012F0000E9492078DE990E00E9490062FEF8EE900
:1013000094E2215080409040E1F700C000000E942C
:10131000880786EA90E00E94900660E081E00E94E3
:10132000920786EB90E00E9490062FEF87EA91E605
:10133000215080409040E1F700C000000E948807E3
:1013400008958A3A910528F4FA011082FB0110826F
:1013500008959C012A5A31092A3A310530F4FA01DC
:10136000108281E0FB01808308959C012455314067
:101370002A3A310530F481E0FA018083FB011082C2
:1013800008959C012E5F31402A3A310530F481E006
:10139000FA018083FB01808308959C01285A324022
:1013A0002A3A310530F482E0FA018083FB01108291
:1013B00008958235934030F082E0FA01808381E025
:1013C000FB0180830895CF93C62F0E948807C13008
:1013D00089F018F0C230D9F027C085EC90E00E9467
:1013E000900660E081E00E94920786ED90E00E9406
:1013F000900624C086EE90E00E94900660E081E0B6
:101400000E94920785EF90E00E94900617C086E048
:1014100091E00E94900660E081E00E94920781E1E5
:1014200091E00E9490060AC08FE191E00E94900630
:1014300040E060E070E0CB010E94A606CF910895E5
:101440008C3C910528F4FA011082FB01108208956A
:101450008839F1E09F0730F4FA01108282E0FB0145
:10146000808308958436F2E09F0730F4FA011082F9
:1014700084E0FB01808308958033934030F4FA01C7
:10148000108287E0FB0180830895FA0110828BE0CF
:10149000FB0180830895CF93C62F0E948807C11156
:1014A0000DC08BE291E00E94900660E081E00E9416
:1014B00092078DE391E00E9490060BC08EE491E0CC
:1014C0000E94900640E060E070E080E090E40E94BE
:1014D000A606CF9108950F931F93CF93DF93C82F44
:1014E000D62F8A0140E066E082E00E941808882337
:1014F000C9F1D1112CC0C43091F028F4CC2341F0B3
:10150000C23049F018C0C73071F0CB3081F013C041
:10151000F801108227C081E0F801808323C082E0B7
:10152000F80180831FC083E0F80180831BC084E042
:10153000F801808317C08FE191E00E94900640E09F
:1015400060E070E080E490E40E94A6060BC08FE1AA
:1015500091E00E94900640E060E070E080E490E45A
:101560000E94A606DF91CF911F910F9108958115DA
:1015700022E0920768F442E3489F9001499F300DB2
:101580001124C9016FEF71E00E946A10862F08953F
:1015900042E3489F9001499F300D1124C9019456A0
:1015A0006FEF71E00E946A1082E3860F089580E079
:1015B0000E94D001BC0180E090E00E94460F20E034
:1015C00030EC4FE754E40E94A50E20E030E040EA02
:1015D00050E40E94FD0F2AE939E949EF50E40E94E6
:1015E000FD0F089583E00E94D001BC0180E090E0EF
:1015F0000E94460F20E030EC4FE754E40E94A50E15
:1016000020E030E040EA50E40E94FD0F2AE939E989
:1016100049EF50E40E94FD0F089582E00E94D0013E
:10162000BC0180E090E00E94460F20E030EC4FE7E4
:1016300054E40E94A50E20E030E040EA50E40E940D
:10164000FD0F20E030E040E250E40E94330E2DEC2C
:101650003CEC4CEC5DE30E94A50E08958F929F92A6
:10166000AF92BF92CF92DF92EF92FF921F93CF93F0
:10167000DF930E94880741E063E082E00E94C90096
:1016800041E061E081E00E94C90040E062E081E069
:101690000E94C90040E067E082E00E941808182F0D
:1016A00081E00E94D001EC010E94D70A4B015C014D
:1016B0000E940D0B6B017C01CE010E94B70A42E033
:1016C00061E00E947F028BE591E00E94900642E07B
:1016D000C501B4010E94A60686E50E94080660E0E6
:1016E00081E00E94920785E691E00E94900642E028
:1016F000C701B6010E94A6062FEF86E191E12150B5
:1017000080409040E1F700C000000E94880711234C
:1017100009F240E063E082E00E94C90040E061E03D
:1017200081E00E94C90040E062E081E00E94C900BF
:101730000E94E7010E94A4020E948807DF91CF91D6
:101740001F91FF90EF90DF90CF90BF90AF909F9050
:101750008F9008958F929F92AF92BF92CF92DF9217
:10176000EF92FF92CF930E94880741E064E082E00D
:101770000E94C90041E060E081E00E94C90041E0B0
:1017800062E081E00E94C9008FE691E00E9490062D
:1017900060E081E00E9492078DE791E00E94900650
:1017A0002FEF86E191E1215080409040E1F700C0A9
:1017B00000000E9488078DE891E00E94900660E09A
:1017C00081E00E9492078CE991E00E9490062FEF41
:1017D00086E191E1215080409040E1F700C0000097
:1017E0000E94880740E067E082E00E941808C82F46
:1017F0000E94F20A4B015C010E940D0B6B017C01FF
:101800008BE591E00E94900642E0C501B4010E9480
:10181000A60660E081E00E94920785E691E00E94C2
:10182000900642E0C701B6010E94A6062FEF84E3AE
:101830009CE0215080409040E1F700C000000E94F1
:101840008807CC2379F240E064E082E00E94C9007E
:1018500040E060E081E00E94C90040E062E081E099
:101860000E94C9000E948807CF91FF90EF90DF90FF
:10187000CF90BF90AF909F908F900895CF930E948C
:10188000880741E062E083E00E94C9008AEA91E0B3
:101890000E94900660E081E00E94920786EB91E052
:1018A0000E9490062FEF8EE994E2215080409040F4
:1018B000E1F700C000000E94880786EC91E00E94DA
:1018C000900660E081E00E9492078DEC91E00E941A
:1018D00090062FEF8EE994E2215080409040E1F78E
:1018E00000C000000E94880740E067E082E00E949C
:1018F0001808C82F83E00E94D00189ED91E00E9472
:1019000090068EE20E9408062FEF84E39CE02150AF
:1019100080409040E1F700C000008EE20E9408067F
:101920002FEF84E39CE0215080409040E1F700C01D
:1019300000008EE20E9408062FEF84E39CE0215015
:1019400080409040E1F700C0000081E20E9408065C
:101950002FEF84E39CE0215080409040E1F700C0ED
:1019600000000E948807CC2309F4BECF0E9488079C
:1019700040E062E083E00E94C900CF910895CF92D9
:10198000DF92EF92FF920F931F93CF93DF9300D0DC
:101990001F92CDB7DEB70E94880740E066E083E083
:1019A0000E9450000E94E30119821A821B822EC0FD
:1019B00040E067E082E00E941808182F81E00E9452
:1019C000D001AE014E5F5F4FBE016F5F7F4F0E943F
:1019D000200A6A8189810E944B0A298141E068E6D8
:1019E00070E081E00E949C072FEF82E597E0215094
:1019F00080409040E1F700C00000AE014D5F5F4FB6
:101A00006A8189810E946B0A111103C08B8188232E
:101A100079F28B810E94830340E067E082E00E94BC
:101A20001808182F80912B0290912C02892B09F411
:101A30004CC00E94880780912B0290912C024B8110
:101A4000489F9001499F300D112440E050E060E034
:101A500074E284EF90E00E94921069017A01209173
:101A6000290230912A0244E6429FC001439F900D13
:101A7000112460912B0270912C020E946A10062F93
:101A800082EE91E00E949006C701B6010E94460FC7
:101A900044E00E94A60660E081E00E94920789EE81
:101AA00091E00E949006602F70E080E090E00E943C
:101AB000460F44E00E94A6062FEF82E597E02150F2
:101AC00080409040E1F700C00000112309F4A4CF4A
:101AD0000E94E7010E9488070E9479030F900F90EF
:101AE0000F90DF91CF911F910F91FF90EF90DF90BA
:101AF000CF900895CF93DF930E9488070E94E3015F
:101B000041E060E082E00E94A80440E067E082E0FB
:101B10000E941808D82F81E00E94D0010E94B70AC5
:101B2000C82F43E061E00E944D0580EF91E00E94E4
:101B3000900660E081E00E9492076C2F70E080E0E8
:101B400090E00E94460F40E00E94A60685E20E94B7
:101B500008062FEF84E39CE0215080409040E1F79D
:101B600000C000000E948807DD2379F2DF91CF9149
:101B700008950E9472050E94E7010E9488078CEF79
:101B800091E00E94900660E081E00E9492078BE164
:101B900091E00E9490068EE20E9408062FEF81EEEF
:101BA00094E0215080409040E1F700C000008EE2B8
:101BB0000E9408062FEF81EE94E021508040904073
:101BC000E1F700C000008EE20E94080681E20E9458
:101BD00008062FEF83EC99E0215080409040E1F718
:101BE00000C000000895CF93DF93D82FC62F40E0A8
:101BF00066E082E00E941808882391F1C13079F0F4
:101C000018F0C230B9F021C0DD2319F0D13021F035
:101C100027C00E942E0B24C00E94AA0B21C0DD23E6
:101C200019F0D13021F01CC00E943E0C19C00E9456
:101C3000BF0C16C0DD2319F0D13021F011C00E9475
:101C40007A0D0EC00E94B90D0BC08FE191E00E9489
:101C5000900640E060E070E080E89FE30E94A60606
:101C6000DF91CF9108955058BB27AA270E944B0EB1
:101C70000C94BE0F0E94B00F38F00E94B70F20F0F6
:101C800039F49F3F19F426F40C94AD0F0EF4E0954F
:101C9000E7FB0C94A70FE92F0E94CF0F58F3BA1758
:101CA000620773078407950720F079F4A6F50C9472
:101CB000F10F0EF4E0950B2EBA2FA02D0B01B901F8
:101CC00090010C01CA01A0011124FF27591B99F0B2
:101CD000593F50F4503E68F11A16F040A22F232FBE
:101CE000342F4427585FF3CF469537952795A7950E
:101CF000F0405395C9F77EF41F16BA0B620B730BB5
:101D0000840BBAF09150A1F0FF0FBB1F661F771F25
:101D1000881FC2F70EC0BA0F621F731F841F48F4DA
:101D2000879577956795B795F7959E3F08F0B0CF63
:101D30009395880F08F09927EE0F9795879508954A
:101D40000E94830F08F481E008950E94B90E0C945C
:101D5000BE0F0E94B70F58F00E94B00F40F029F458
:101D60005F3F29F00C94A70F51110C94F20F0C94C3
:101D7000AD0F0E94CF0F68F39923B1F3552391F370
:101D8000951B550BBB27AA2762177307840738F0EA
:101D90009F5F5F4F220F331F441FAA1FA9F335D047
:101DA0000E2E3AF0E0E832D091505040E695001CFB
:101DB000CAF72BD0FE2F29D0660F771F881FBB1FB5
:101DC000261737074807AB07B0E809F0BB0B802D93
:101DD000BF01FF2793585F4F3AF09E3F510578F0BF
:101DE0000C94A70F0C94F20F5F3FE4F3983ED4F3EA
:101DF000869577956795B795F7959F5FC9F7880F93
:101E0000911D9695879597F90895E1E0660F771FE4
:101E1000881FBB1F621773078407BA0720F0621B75
:101E2000730B840BBA0BEE1F88F7E09508950E94A0
:101E3000D70F88F09F5798F0B92F9927B751B0F076
:101E4000E1F0660F771F881F991F1AF0BA95C9F73E
:101E500014C0B13091F00E94F10FB1E008950C94DC
:101E6000F10F672F782F8827B85F39F0B93FCCF38F
:101E7000869577956795B395D9F73EF490958095BB
:101E8000709561957F4F8F4F9F4F0895E89409C0DB
:101E900097FB3EF490958095709561957F4F8F4F9D
:101EA0009F4F9923A9F0F92F96E9BB279395F695B3
:101EB000879577956795B795F111F8CFFAF4BB0F31
:101EC00011F460FF1BC06F5F7F4F8F4F9F4F16C095
:101ED000882311F096E911C0772321F09EE8872F1F
:101EE000762F05C0662371F096E8862F70E060E0DB
:101EF0002AF09A95660F771F881FDAF7880F969554
:101F0000879597F90895990F0008550FAA0BE0E8F7
:101F1000FEEF16161706E807F907C0F012161306AB
:101F2000E407F50798F0621B730B840B950B39F4EB
:101F30000A2661F0232B242B252B21F408950A2651
:101F400009F4A140A6958FEF811D811D089597F991
:101F50009F6780E870E060E008959FEF80EC08954F
:101F600000240A9416161706180609060895002478
:101F70000A9412161306140605060895092E0394F2
:101F8000000C11F4882352F0BB0F40F4BF2B11F466
:101F900060FF04C06F5F7F4F8F4F9F4F089557FDC5
:101FA0009058440F551F59F05F3F71F04795880FC7
:101FB00097FB991F61F09F3F79F08795089512165E
:101FC00013061406551FF2CF4695F1DF08C016160A
:101FD00017061806991FF1CF8695710561050894BB
:101FE0000895E894BB2766277727CB0197F90895D2
:101FF0000E94830F08F48FEF08950E9410100C9434
:10200000BE0F0E94B00F38F00E94B70F20F095234A
:1020100011F00C94A70F0C94AD0F11240C94F20F37
:102020000E94CF0F70F3959FC1F3950F50E0551F9D
:10203000629FF001729FBB27F00DB11D639FAA271D
:10204000F00DB11DAA1F649F6627B00DA11D661F6C
:10205000829F2227B00DA11D621F739FB00DA11D8D
:10206000621F839FA00D611D221F749F3327A00D47
:10207000611D231F849F600D211D822F762F6A2FE3
:1020800011249F5750409AF0F1F088234AF0EE0F48
:10209000FF1FBB1F661F771F881F91505040A9F775
:1020A0009E3F510580F00C94A70F0C94F20F5F3FF8
:1020B000E4F3983ED4F3869577956795B795F795B1
:1020C000E7959F5FC1F7FE2B880F911D9695879529
:1020D00097F90895AA1BBB1B51E107C0AA1FBB1F9C
:1020E000A617B70710F0A61BB70B881F991F5A95A4
:1020F000A9F780959095BC01CD01089597FB072E17
:1021000016F4009407D077FD09D00E946A1007FCEE
:1021100005D03EF4909581959F4F089570956195F7
:102120007F4F0895A1E21A2EAA1BBB1BFD010DC013
:10213000AA1FBB1FEE1FFF1FA217B307E407F50777
:1021400020F0A21BB30BE40BF50B661F771F881F53
:10215000991F1A9469F760957095809590959B01E9
:10216000AC01BD01CF010895EE0FFF1F0590F49162
:10217000E02D0994A29FB001B39FC001A39F700DF1
:10218000811D1124911DB29F700D811D1124911D7F
:062190000895F894FFCF52
:10219600080C0E1F1F0E0C08080C0E1F1F0E0C0835
:1021A60053505320563200496E697469616C697ADE
:1021B600696E67202E005761726E696E67005465FE
:1021C6006D706572617475726520697300546F6F06
:1021D60020686F742100506C656173652074757298
:1021E6006E206F66660050535520666F72206E6FC4
:1021F600772E2E2E00204869676820506F7765720B
:10220600206D6F646500204C6F7720506F77657284
:10221600206D6F646500204368617267696E672090
:102226006D6F646500204672657175656E63792011
:10223600436F756E74002046616E20537065656449
:1022460000205475726E204F66662046616E00450A
:1022560072726F7220436F64653A0053656C6563F2
:1022660074205072657363616C65723A0020312088
:10227600382036342032353620313032340045723B
:10228600726F7220436F64653A2000566F6C7461FA
:1022960067653A200043757272656E743A20005481
:1022A600686973206D6F64652069732000436F6EE3
:1022B60074726F6C6C65642062792E2E00506F7498
:1022C600656E74696F6D657465727300427920740A
:1022D6006865206F757470757400506C6561736500
:1022E6002077616974007768696C6520626174742F
:1022F60065726965730046696E6973680043686153
:102306007267696E67212121004368617267696E91
:102316006700467265713A2000447574793A200068
:1023260046616E2053706565643A20005475726E7E
:0C233600696E67204F66662E2E2E000098
:00000001FF
